{
  "_format": "hh-sol-artifact-1",
  "contractName": "MultisigFactory",
  "sourceName": "contracts/MultisigFactory.sol",
  "abi": [
    {
      "inputs": [
        {
          "internalType": "uint8",
          "name": "_quorum",
          "type": "uint8"
        },
        {
          "internalType": "address[]",
          "name": "_validSigners",
          "type": "address[]"
        }
      ],
      "name": "createMultisig",
      "outputs": [
        {
          "internalType": "contract Multisig",
          "name": "newMultisig",
          "type": "address"
        },
        {
          "internalType": "uint256",
          "name": "numberOfClones",
          "type": "uint256"
        }
      ],
      "stateMutability": "nonpayable",
      "type": "function"
    },
    {
      "inputs": [],
      "name": "getMultisigClones",
      "outputs": [
        {
          "internalType": "contract Multisig[]",
          "name": "",
          "type": "address[]"
        }
      ],
      "stateMutability": "view",
      "type": "function"
    }
  ],
  "bytecode": "0x608060405234801561001057600080fd5b50612e9b806100206000396000f3fe60806040523480156200001157600080fd5b50600436106200003a5760003560e01c806338763542146200003f57806349acc4b21462000061575b600080fd5b6200004962000098565b604051620000589190620003c3565b60405180910390f35b6200007f6004803603810190620000799190620005f3565b62000128565b6040516200008f92919062000685565b60405180910390f35b606060008054806020026020016040519081016040528092919081815260200182805480156200011e57602002820191906000526020600020905b8160009054906101000a900473ffffffffffffffffffffffffffffffffffffffff1673ffffffffffffffffffffffffffffffffffffffff1681526020019060010190808311620000d3575b5050505050905090565b60008060018460ff161162000174576040517f08c379a00000000000000000000000000000000000000000000000000000000081526004016200016b9062000713565b60405180910390fd5b82518460ff161115620001be576040517f08c379a0000000000000000000000000000000000000000000000000000000008152600401620001b59062000785565b60405180910390fd5b8383604051620001ce906200026d565b620001db92919062000875565b604051809103906000f080158015620001f8573d6000803e3d6000fd5b5091506000829080600181540180825580915050600190039060005260206000200160009091909190916101000a81548173ffffffffffffffffffffffffffffffffffffffff021916908373ffffffffffffffffffffffffffffffffffffffff16021790555060008054905090509250929050565b6125bc80620008aa83390190565b600081519050919050565b600082825260208201905092915050565b6000819050602082019050919050565b600073ffffffffffffffffffffffffffffffffffffffff82169050919050565b6000819050919050565b6000620002f2620002ec620002e684620002a7565b620002c7565b620002a7565b9050919050565b60006200030682620002d1565b9050919050565b60006200031a82620002f9565b9050919050565b6200032c816200030d565b82525050565b600062000340838362000321565b60208301905092915050565b6000602082019050919050565b600062000366826200027b565b62000372818562000286565b93506200037f8362000297565b8060005b83811015620003b65781516200039a888262000332565b9750620003a7836200034c565b92505060018101905062000383565b5085935050505092915050565b60006020820190508181036000830152620003df818462000359565b905092915050565b6000604051905090565b600080fd5b600080fd5b600060ff82169050919050565b6200041381620003fb565b81146200041f57600080fd5b50565b600081359050620004338162000408565b92915050565b600080fd5b6000601f19601f8301169050919050565b7f4e487b7100000000000000000000000000000000000000000000000000000000600052604160045260246000fd5b62000489826200043e565b810181811067ffffffffffffffff82111715620004ab57620004aa6200044f565b5b80604052505050565b6000620004c0620003e7565b9050620004ce82826200047e565b919050565b600067ffffffffffffffff821115620004f157620004f06200044f565b5b602082029050602081019050919050565b600080fd5b60006200051482620002a7565b9050919050565b620005268162000507565b81146200053257600080fd5b50565b60008135905062000546816200051b565b92915050565b6000620005636200055d84620004d3565b620004b4565b9050808382526020820190506020840283018581111562000589576200058862000502565b5b835b81811015620005b65780620005a1888262000535565b8452602084019350506020810190506200058b565b5050509392505050565b600082601f830112620005d857620005d762000439565b5b8135620005ea8482602086016200054c565b91505092915050565b600080604083850312156200060d576200060c620003f1565b5b60006200061d8582860162000422565b925050602083013567ffffffffffffffff811115620006415762000640620003f6565b5b6200064f85828601620005c0565b9150509250929050565b62000664816200030d565b82525050565b6000819050919050565b6200067f816200066a565b82525050565b60006040820190506200069c600083018562000659565b620006ab602083018462000674565b9392505050565b600082825260208201905092915050565b7f71756f72756d20697320746f6f20736d616c6c00000000000000000000000000600082015250565b6000620006fb601383620006b2565b91506200070882620006c3565b602082019050919050565b600060208201905081810360008301526200072e81620006ec565b9050919050565b7f71756f72756d20697320746f6f20626967000000000000000000000000000000600082015250565b60006200076d601183620006b2565b91506200077a8262000735565b602082019050919050565b60006020820190508181036000830152620007a0816200075e565b9050919050565b620007b281620003fb565b82525050565b600081519050919050565b6000819050602082019050919050565b620007de8162000507565b82525050565b6000620007f28383620007d3565b60208301905092915050565b6000602082019050919050565b60006200081882620007b8565b62000824818562000286565b93506200083183620007c3565b8060005b83811015620008685781516200084c8882620007e4565b97506200085983620007fe565b92505060018101905062000835565b5085935050505092915050565b60006040820190506200088c6000830185620007a7565b8181036020830152620008a081846200080b565b9050939250505056fe60806040523480156200001157600080fd5b50604051620025bc380380620025bc83398181016040528101906200003791906200063d565b60018151116200007e576040517f08c379a0000000000000000000000000000000000000000000000000000000008152600401620000759062000704565b60405180910390fd5b60018260ff1611620000c7576040517f08c379a0000000000000000000000000000000000000000000000000000000008152600401620000be9062000776565b60405180910390fd5b60005b81518110156200029357600073ffffffffffffffffffffffffffffffffffffffff1682828151811062000102576200010162000798565b5b602002602001015173ffffffffffffffffffffffffffffffffffffffff160362000163576040517f08c379a00000000000000000000000000000000000000000000000000000000081526004016200015a9062000817565b60405180910390fd5b600360008383815181106200017d576200017c62000798565b5b602002602001015173ffffffffffffffffffffffffffffffffffffffff1673ffffffffffffffffffffffffffffffffffffffff16815260200190815260200160002060009054906101000a900460ff161562000210576040517f08c379a0000000000000000000000000000000000000000000000000000000008152600401620002079062000889565b60405180910390fd5b6001600360008484815181106200022c576200022b62000798565b5b602002602001015173ffffffffffffffffffffffffffffffffffffffff1673ffffffffffffffffffffffffffffffffffffffff16815260200190815260200160002060006101000a81548160ff0219169083151502179055508080600101915050620000ca565b508051600060016101000a81548160ff021916908360ff160217905550600360003373ffffffffffffffffffffffffffffffffffffffff1673ffffffffffffffffffffffffffffffffffffffff16815260200190815260200160002060009054906101000a900460ff1662000394576001600360003373ffffffffffffffffffffffffffffffffffffffff1673ffffffffffffffffffffffffffffffffffffffff16815260200190815260200160002060006101000a81548160ff0219169083151502179055506001600060018282829054906101000a900460ff166200037b9190620008da565b92506101000a81548160ff021916908360ff1602179055505b600060019054906101000a900460ff1660ff168260ff161115620003ef576040517f08c379a0000000000000000000000000000000000000000000000000000000008152600401620003e6906200098c565b60405180910390fd5b816000806101000a81548160ff021916908360ff1602179055505050620009ae565b6000604051905090565b600080fd5b600080fd5b600060ff82169050919050565b6200043d8162000425565b81146200044957600080fd5b50565b6000815190506200045d8162000432565b92915050565b600080fd5b6000601f19601f8301169050919050565b7f4e487b7100000000000000000000000000000000000000000000000000000000600052604160045260246000fd5b620004b38262000468565b810181811067ffffffffffffffff82111715620004d557620004d462000479565b5b80604052505050565b6000620004ea62000411565b9050620004f88282620004a8565b919050565b600067ffffffffffffffff8211156200051b576200051a62000479565b5b602082029050602081019050919050565b600080fd5b600073ffffffffffffffffffffffffffffffffffffffff82169050919050565b60006200055e8262000531565b9050919050565b620005708162000551565b81146200057c57600080fd5b50565b600081519050620005908162000565565b92915050565b6000620005ad620005a784620004fd565b620004de565b90508083825260208201905060208402830185811115620005d357620005d26200052c565b5b835b81811015620006005780620005eb88826200057f565b845260208401935050602081019050620005d5565b5050509392505050565b600082601f83011262000622576200062162000463565b5b81516200063484826020860162000596565b91505092915050565b600080604083850312156200065757620006566200041b565b5b600062000667858286016200044c565b925050602083015167ffffffffffffffff8111156200068b576200068a62000420565b5b62000699858286016200060a565b9150509250929050565b600082825260208201905092915050565b7f6665772076616c6964207369676e657273000000000000000000000000000000600082015250565b6000620006ec601183620006a3565b9150620006f982620006b4565b602082019050919050565b600060208201905081810360008301526200071f81620006dd565b9050919050565b7f71756f72756d20697320746f6f20736d616c6c00000000000000000000000000600082015250565b60006200075e601383620006a3565b91506200076b8262000726565b602082019050919050565b6000602082019050818103600083015262000791816200074f565b9050919050565b7f4e487b7100000000000000000000000000000000000000000000000000000000600052603260045260246000fd5b7f7a65726f2061646472657373206e6f7420616c6c6f7765640000000000000000600082015250565b6000620007ff601883620006a3565b91506200080c82620007c7565b602082019050919050565b600060208201905081810360008301526200083281620007f0565b9050919050565b7f7369676e657220616c7265616479206578697374000000000000000000000000600082015250565b600062000871601483620006a3565b91506200087e8262000839565b602082019050919050565b60006020820190508181036000830152620008a48162000862565b9050919050565b7f4e487b7100000000000000000000000000000000000000000000000000000000600052601160045260246000fd5b6000620008e78262000425565b9150620008f48362000425565b9250828201905060ff81111562000910576200090f620008ab565b5b92915050565b7f71756f72756d2067726561746572207468616e2076616c6964207369676e657260008201527f7300000000000000000000000000000000000000000000000000000000000000602082015250565b600062000974602183620006a3565b9150620009818262000916565b604082019050919050565b60006020820190508181036000830152620009a78162000965565b9050919050565b611bfe80620009be6000396000f3fe608060405234801561001057600080fd5b50600436106100935760003560e01c80632f430e17116100665780632f430e171461010e5780633c5406871461012a5780636592fdc114610148578063ccb570e314610178578063d40cfc511461019457610093565b80631703a0181461009857806317eff51b146100b6578063279814b5146100d45780632df45b65146100f0575b600080fd5b6100a06101b0565b6040516100ad9190611343565b60405180910390f35b6100be6101c1565b6040516100cb9190611343565b60405180910390f35b6100ee60048036038101906100e9919061138f565b6101d4565b005b6100f861055f565b60405161010591906113d5565b60405180910390f35b6101286004803603810190610123919061138f565b610565565b005b610132610a74565b60405161013f91906113d5565b60405180910390f35b610162600480360381019061015d919061144e565b610a7a565b60405161016f9190611496565b60405180910390f35b610192600480360381019061018d91906114dd565b610ad0565b005b6101ae60048036038101906101a9919061138f565b610fbf565b005b60008054906101000a900460ff1681565b600060019054906101000a900460ff1681565b6000600460008360ff16815260200190815260200160002090506000816000015403610235576040517f08c379a000000000000000000000000000000000000000000000000000000000815260040161022c9061158d565b60405180910390fd5b8060030160009054906101000a900460ff1615610287576040517f08c379a000000000000000000000000000000000000000000000000000000000815260040161027e906115f9565b60405180910390fd5b60008054906101000a900460ff1660ff168160050154106102dd576040517f08c379a00000000000000000000000000000000000000000000000000000000081526004016102d490611665565b60405180910390fd5b600360003373ffffffffffffffffffffffffffffffffffffffff1673ffffffffffffffffffffffffffffffffffffffff16815260200190815260200160002060009054906101000a900460ff16610369576040517f08c379a0000000000000000000000000000000000000000000000000000000008152600401610360906116d1565b60405180910390fd5b600760003373ffffffffffffffffffffffffffffffffffffffff1673ffffffffffffffffffffffffffffffffffffffff16815260200190815260200160002060008360ff16815260200190815260200160002060009054906101000a900460ff161561040a576040517f08c379a00000000000000000000000000000000000000000000000000000000081526004016104019061173d565b60405180910390fd5b6001600760003373ffffffffffffffffffffffffffffffffffffffff1673ffffffffffffffffffffffffffffffffffffffff16815260200190815260200160002060008460ff16815260200190815260200160002060006101000a81548160ff021916908315150217905550600181600501600082825461048b919061178c565b9250508190555080600201339080600181540180825580915050600190039060005260206000200160009091909190916101000a81548173ffffffffffffffffffffffffffffffffffffffff021916908373ffffffffffffffffffffffffffffffffffffffff16021790555060008054906101000a900460ff1660ff1681600501540361055b5760018160030160006101000a81548160ff0219169083151502179055508060060160019054906101000a900460ff166000806101000a81548160ff021916908360ff1602179055505b5050565b60025481565b6000600560008360ff168152602001908152602001600020905060008160000154036105c6576040517f08c379a00000000000000000000000000000000000000000000000000000000081526004016105bd9061158d565b60405180910390fd5b80600101548160060160009054906101000a900473ffffffffffffffffffffffffffffffffffffffff1673ffffffffffffffffffffffffffffffffffffffff166370a08231306040518263ffffffff1660e01b815260040161062891906117cf565b602060405180830381865afa158015610645573d6000803e3d6000fd5b505050506040513d601f19601f8201168201806040525081019061066991906117ff565b10156106aa576040517f08c379a00000000000000000000000000000000000000000000000000000000081526004016106a190611878565b60405180910390fd5b60008054906101000a900460ff1660ff16816005015410610700576040517f08c379a00000000000000000000000000000000000000000000000000000000081526004016106f790611665565b60405180910390fd5b8060030160149054906101000a900460ff1615610752576040517f08c379a0000000000000000000000000000000000000000000000000000000008152600401610749906115f9565b60405180910390fd5b600360003373ffffffffffffffffffffffffffffffffffffffff1673ffffffffffffffffffffffffffffffffffffffff16815260200190815260200160002060009054906101000a900460ff166107de576040517f08c379a00000000000000000000000000000000000000000000000000000000081526004016107d5906116d1565b60405180910390fd5b600660003373ffffffffffffffffffffffffffffffffffffffff1673ffffffffffffffffffffffffffffffffffffffff16815260200190815260200160002060008360ff16815260200190815260200160002060009054906101000a900460ff161561087f576040517f08c379a00000000000000000000000000000000000000000000000000000000081526004016108769061173d565b60405180910390fd5b6001600660003373ffffffffffffffffffffffffffffffffffffffff1673ffffffffffffffffffffffffffffffffffffffff16815260200190815260200160002060008460ff16815260200190815260200160002060006101000a81548160ff0219169083151502179055506001816005016000828254610900919061178c565b9250508190555080600701339080600181540180825580915050600190039060005260206000200160009091909190916101000a81548173ffffffffffffffffffffffffffffffffffffffff021916908373ffffffffffffffffffffffffffffffffffffffff16021790555060008054906101000a900460ff1660ff16816005015403610a705760018160030160146101000a81548160ff0219169083151502179055508060060160009054906101000a900473ffffffffffffffffffffffffffffffffffffffff1673ffffffffffffffffffffffffffffffffffffffff1663a9059cbb8260030160009054906101000a900473ffffffffffffffffffffffffffffffffffffffff1683600101546040518363ffffffff1660e01b8152600401610a2b929190611898565b6020604051808303816000875af1158015610a4a573d6000803e3d6000fd5b505050506040513d601f19601f82011682018060405250810190610a6e91906118ed565b505b5050565b60015481565b6000600360008373ffffffffffffffffffffffffffffffffffffffff1673ffffffffffffffffffffffffffffffffffffffff16815260200190815260200160002060009054906101000a900460ff169050919050565b600073ffffffffffffffffffffffffffffffffffffffff163373ffffffffffffffffffffffffffffffffffffffff1603610b3f576040517f08c379a0000000000000000000000000000000000000000000000000000000008152600401610b3690611966565b60405180910390fd5b600360003373ffffffffffffffffffffffffffffffffffffffff1673ffffffffffffffffffffffffffffffffffffffff16815260200190815260200160002060009054906101000a900460ff16610bcb576040517f08c379a0000000000000000000000000000000000000000000000000000000008152600401610bc2906119d2565b60405180910390fd5b60008311610c0e576040517f08c379a0000000000000000000000000000000000000000000000000000000008152600401610c0590611a3e565b60405180910390fd5b600073ffffffffffffffffffffffffffffffffffffffff168273ffffffffffffffffffffffffffffffffffffffff1603610c7d576040517f08c379a0000000000000000000000000000000000000000000000000000000008152600401610c7490611966565b60405180910390fd5b600073ffffffffffffffffffffffffffffffffffffffff168173ffffffffffffffffffffffffffffffffffffffff1603610cec576040517f08c379a0000000000000000000000000000000000000000000000000000000008152600401610ce390611966565b60405180910390fd5b828173ffffffffffffffffffffffffffffffffffffffff166370a08231306040518263ffffffff1660e01b8152600401610d2691906117cf565b602060405180830381865afa158015610d43573d6000803e3d6000fd5b505050506040513d601f19601f82011682018060405250810190610d6791906117ff565b1015610da8576040517f08c379a0000000000000000000000000000000000000000000000000000000008152600401610d9f90611878565b60405180910390fd5b600060018054610db8919061178c565b90506000600560008381526020019081526020016000209050818160000181905550848160010181905550838160030160006101000a81548173ffffffffffffffffffffffffffffffffffffffff021916908373ffffffffffffffffffffffffffffffffffffffff160217905550338160020160006101000a81548173ffffffffffffffffffffffffffffffffffffffff021916908373ffffffffffffffffffffffffffffffffffffffff160217905550428160040181905550828160060160006101000a81548173ffffffffffffffffffffffffffffffffffffffff021916908373ffffffffffffffffffffffffffffffffffffffff1602179055506001816005016000828254610eca919061178c565b9250508190555080600701339080600181540180825580915050600190039060005260206000200160009091909190916101000a81548173ffffffffffffffffffffffffffffffffffffffff021916908373ffffffffffffffffffffffffffffffffffffffff1602179055506001600660003373ffffffffffffffffffffffffffffffffffffffff1673ffffffffffffffffffffffffffffffffffffffff168152602001908152602001600020600084815260200190815260200160002060006101000a81548160ff0219169083151502179055506001806000828254610fb1919061178c565b925050819055505050505050565b600360003373ffffffffffffffffffffffffffffffffffffffff1673ffffffffffffffffffffffffffffffffffffffff16815260200190815260200160002060009054906101000a900460ff1661104b576040517f08c379a0000000000000000000000000000000000000000000000000000000008152600401611042906116d1565b60405180910390fd5b600073ffffffffffffffffffffffffffffffffffffffff163373ffffffffffffffffffffffffffffffffffffffff16036110ba576040517f08c379a00000000000000000000000000000000000000000000000000000000081526004016110b190611aaa565b60405180910390fd5b600060019054906101000a900460ff1660ff168160ff161115611112576040517f08c379a000000000000000000000000000000000000000000000000000000000815260040161110990611b3c565b60405180910390fd5b60018160ff1611611158576040517f08c379a000000000000000000000000000000000000000000000000000000000815260040161114f90611ba8565b60405180910390fd5b60006001600254611169919061178c565b90506000600460008381526020019081526020016000209050818160000181905550338160010160006101000a81548173ffffffffffffffffffffffffffffffffffffffff021916908373ffffffffffffffffffffffffffffffffffffffff16021790555042816004018190555060018160050160008282546111ec919061178c565b9250508190555080600201339080600181540180825580915050600190039060005260206000200160009091909190916101000a81548173ffffffffffffffffffffffffffffffffffffffff021916908373ffffffffffffffffffffffffffffffffffffffff1602179055506001600760003373ffffffffffffffffffffffffffffffffffffffff1673ffffffffffffffffffffffffffffffffffffffff168152602001908152602001600020600084815260200190815260200160002060006101000a81548160ff0219169083151502179055506001600260008282546112d4919061178c565b9250508190555060008054906101000a900460ff168160060160006101000a81548160ff021916908360ff160217905550828160060160016101000a81548160ff021916908360ff160217905550505050565b600060ff82169050919050565b61133d81611327565b82525050565b60006020820190506113586000830184611334565b92915050565b600080fd5b61136c81611327565b811461137757600080fd5b50565b60008135905061138981611363565b92915050565b6000602082840312156113a5576113a461135e565b5b60006113b38482850161137a565b91505092915050565b6000819050919050565b6113cf816113bc565b82525050565b60006020820190506113ea60008301846113c6565b92915050565b600073ffffffffffffffffffffffffffffffffffffffff82169050919050565b600061141b826113f0565b9050919050565b61142b81611410565b811461143657600080fd5b50565b60008135905061144881611422565b92915050565b6000602082840312156114645761146361135e565b5b600061147284828501611439565b91505092915050565b60008115159050919050565b6114908161147b565b82525050565b60006020820190506114ab6000830184611487565b92915050565b6114ba816113bc565b81146114c557600080fd5b50565b6000813590506114d7816114b1565b92915050565b6000806000606084860312156114f6576114f561135e565b5b6000611504868287016114c8565b935050602061151586828701611439565b925050604061152686828701611439565b9150509250925092565b600082825260208201905092915050565b7f696e76616c696420747820696400000000000000000000000000000000000000600082015250565b6000611577600d83611530565b915061158282611541565b602082019050919050565b600060208201905081810360008301526115a68161156a565b9050919050565b7f7472616e73616374696f6e20616c726561647920636f6d706c65746564000000600082015250565b60006115e3601d83611530565b91506115ee826115ad565b602082019050919050565b60006020820190508181036000830152611612816115d6565b9050919050565b7f617070726f76616c7320616c7265616479207265616368656400000000000000600082015250565b600061164f601983611530565b915061165a82611619565b602082019050919050565b6000602082019050818103600083015261167e81611642565b9050919050565b7f6e6f7420612076616c6964207369676e65720000000000000000000000000000600082015250565b60006116bb601283611530565b91506116c682611685565b602082019050919050565b600060208201905081810360008301526116ea816116ae565b9050919050565b7f63616e2774207369676e20747769636500000000000000000000000000000000600082015250565b6000611727601083611530565b9150611732826116f1565b602082019050919050565b600060208201905081810360008301526117568161171a565b9050919050565b7f4e487b7100000000000000000000000000000000000000000000000000000000600052601160045260246000fd5b6000611797826113bc565b91506117a2836113bc565b92508282019050808211156117ba576117b961175d565b5b92915050565b6117c981611410565b82525050565b60006020820190506117e460008301846117c0565b92915050565b6000815190506117f9816114b1565b92915050565b6000602082840312156118155761181461135e565b5b6000611823848285016117ea565b91505092915050565b7f696e73756666696369656e742066756e64730000000000000000000000000000600082015250565b6000611862601283611530565b915061186d8261182c565b602082019050919050565b6000602082019050818103600083015261189181611855565b9050919050565b60006040820190506118ad60008301856117c0565b6118ba60208301846113c6565b9392505050565b6118ca8161147b565b81146118d557600080fd5b50565b6000815190506118e7816118c1565b92915050565b6000602082840312156119035761190261135e565b5b6000611911848285016118d8565b91505092915050565b7f61646472657373207a65726f20666f756e640000000000000000000000000000600082015250565b6000611950601283611530565b915061195b8261191a565b602082019050919050565b6000602082019050818103600083015261197f81611943565b9050919050565b7f696e76616c6964207369676e6572000000000000000000000000000000000000600082015250565b60006119bc600e83611530565b91506119c782611986565b602082019050919050565b600060208201905081810360008301526119eb816119af565b9050919050565b7f63616e27742073656e64207a65726f20616d6f756e7400000000000000000000600082015250565b6000611a28601683611530565b9150611a33826119f2565b602082019050919050565b60006020820190508181036000830152611a5781611a1b565b9050919050565b7f7a65726f2061646472657373206e6f7420616c6c6f7765640000000000000000600082015250565b6000611a94601883611530565b9150611a9f82611a5e565b602082019050919050565b60006020820190508181036000830152611ac381611a87565b9050919050565b7f71756f72756d2067726561746572207468616e2076616c6964207369676e657260008201527f7300000000000000000000000000000000000000000000000000000000000000602082015250565b6000611b26602183611530565b9150611b3182611aca565b604082019050919050565b60006020820190508181036000830152611b5581611b19565b9050919050565b7f71756f72756d20697320746f6f20736d616c6c00000000000000000000000000600082015250565b6000611b92601383611530565b9150611b9d82611b5c565b602082019050919050565b60006020820190508181036000830152611bc181611b85565b905091905056fea2646970667358221220f633e8926ad0d2e92a1b1c81a5cd176bbc34c7e0be5586dd521a6da82d531e7264736f6c63430008180033a26469706673582212207d7f3033a430ff55005aec42c1a61ebdfc0fdb66e0505be4d81b09c9f5e5329c64736f6c63430008180033",
  "linkReferences": {},
  "deployedLinkReferences": {}
}